:100000006EEF10F0F76A140FF66E000EF72209007B
:10001000F5501200313233413435364237383943E6
:100020002A302344F76A340FF66E000EF7220900D7
:10003000F5501200000000000000005F0000000307
:10004000000300143E143E14242A7F2A124333086E
:10005000666136495522500005030000001C22410C
:10006000000041221C0014083E081408083E08083D
:1000700000503000000808080808006060000020F8
:10008000100804023E5149453E0004027F004261CF
:1000900051494622414949361814127F10274545D7
:1000A00045393E49494932010171090736494949F3
:1000B00036264949493E00363600000056360000D3
:1000C00008142241001414141414004122140802CC
:1000D000015109063E4159555E7E0909097E7F4955
:1000E0004949363E414141227F4141413E7F494994
:1000F00049417F090909013E4141493A7F08080801
:100100007F00417F4100304040403F7F0814224142
:100110007F404040407F020C027F7F0204087F3E08
:100120004141413E7F090909061E2121215E7F09C7
:1001300009097600F76A440FF66E010EF7220900EE
:10014000F5501200264949493201017F01013F4023
:1001500040403F1F2040201F7F2010207F41221C55
:10016000224107087008076151494543007F41005B
:100170000002040810200000417F00040201020474
:100180004040404040000102040020545454787F15
:10019000444444383844444444384444447F385404
:1001A00054541804047E0505085454543C7F080434
:1001B000047800447D40002040443D007F102844E6
:1001C0000000417F40007C047804787C08040478B7
:1001D00038444444387C14141408081414147C0063
:1001E0007C080404485454542004043F44443C40D4
:1001F00040207C1C2040201C3C4030403C442810C7
:1002000028440C5050503C4464544C44000836413F
:100210004100007F00004141360800020102040253
:100220002E0FF66E020EF7220900F55012000000A4
:1002300000000000000000000000000000000000BE
:1002400000000000000000000000000000000000AE
:10025000000000000000000000000000000000009E
:10026000000000000080C06030180C0C0C0C0C0C5E
:100270000C0C0C183060C080000000000000000072
:10028000000000000000000000000000000000006E
:10029000000000000000000000000000000000005E
:1002A000000000000000000000000000000000004E
:1002B000000030484848900000C0A0A0C00000C026
:1002C0002020E00000E00000E00000E02000E80066
:1002D000C02020F8000000A0A0E00000C02020F80E
:1002E00000000000FEFF0100000000000000000010
:1002F00000000000000001FFFE0000000000000000
:10030000000000000000100888483000C0A090885D
:10031000F88000000000E0180000000808C8380855
:1003200000000000000000000000000000000000CD
:1003300000000102020201000001020202000005A9
:100340000A0A070000010202030000030000030084
:100350000102020300000302020300000102020383
:1003600000808080FFFF808080808080808080800F
:1003700080808080808080FFFF808080000000007F
:100380000000000000000203020202000000000062
:100390000300000000030000000000000300000054
:1003A000000000000000000000000000000000004D
:1003B000000000000000000000000000000000003D
:1003C000000000000000000000000000000000002D
:1003D000000000000000000000000000000000001D
:1003E000FFFFFFFFFFFFFFFFFF7FBFDF6F2FAFAFFD
:1003F0002FAB7BEB4BFB83FFFFFFFFFFFF000000FA
:1004000000000000000000000000000000000000EC
:1004100000000000000000000000000000000000DC
:1004200000000000000000000000000000000000CC
:1004300000000000000000000000000000000000BC
:1004400000000000000000000000000000000000AC
:10045000000000000000000000000000000000009C
:10046000FFFFFFFFFFFFFFFFFFE0DFB066495052D5
:100470004966B0DFE0FFFFFFFFFFFFFFFF00000066
:10048000000000000000000000000000000000006C
:10049000000000000000000000000000000000005C
:1004A000000000000000000000000000000000004C
:1004B000000000000000000000000000000000003C
:1004C000000000000000000000000000000000002C
:1004D000000000000000000000000000000000001C
:1004E0001F3F7F7F7F7F7F7F7F7F7F7F7F7F7F7FBC
:1004F0007F7F7F7F7F7F7F7F7F7F7F3F1F00000029
:1005000000000000000000000000000000000000EB
:1005100000000000000000000000000000000000DB
:1005200000000000000000000000000000000000CB
:1005300000000000000000000000000000000000BB
:1005400000000000000000000000000000000000AB
:100550000000000000000000000000000000F0901B
:10056000909060000080601060800000F01010200B
:10057000C0000080601060800000F09090906000EB
:10058000000000000000000000000000000000006B
:10059000000000000000000000000000000000005B
:1005A000000000000000000000000000000000004B
:1005B000000000000000000000000000000000003B
:1005C000000000000000000000000000000000002B
:1005D0000000000000000000000000000000070014
:1005E00000010600040301010103040007040402E2
:1005F00001000403010101030400070000010600DB
:1006000000000000000000000000000000000000EA
:1006100000000000000000000000000000000000DA
:1006200000000000000000000000000000003C0F7F
:10063000F66E060EF7220900F550120000000000C9
:1006400000000000000000000000000000000000AA
:10065000000000000000000000000000000000009A
:10066000000000000000000000000000000000008A
:10067000000000000000000080E0F878F8E0800052
:10068000000000000000000000000000000000006A
:10069000000000000000000000000000000000005A
:1006A000000000000000000000000000000000004A
:1006B000000000000000000000000000000000003A
:1006C000000000000000000000000000000000002A
:1006D000000000000000000000000000000000001A
:1006E000000000000000000000000000000000000A
:1006F00000000000C0F0FC3E1F07818081071F3E04
:10070000FCF0C0000000000000000000000000003D
:1007100000000000000000000000000000000000D9
:1007200000000000000000000000000000000000C9
:1007300000000000000000000000000000000000B9
:1007400000000000000000000000000000000000A9
:100750000000000000000000000000000000000099
:100760000000000000000000000000000000008009
:10077000E0F87C1F0F0300000000FFFFFF000000F7
:1007800000030F1F7CF8E080000000000000000064
:100790000000000000000000000000000000000059
:1007A0000000000000000000000000000000000049
:1007B0000000000000000000000000000000000039
:1007C0000000000000000000000000000000000029
:1007D0000000000000000000000000000000000019
:1007E0000000000000000000000080C0F0FC3E0F90
:1007F00003010000000000000000FFFFFF000000F8
:10080000000000000001030F3EFCF0C0800000006B
:1008100000000000000000000000000000000000D8
:1008200000000000000000000000000000000000C8
:1008300000000000000000000000000000000000B8
:1008400000000000000000000000000000000000A8
:100850000000000000000000000000000000000098
:10086000000000000000C0E0F87E1F07010000004B
:10087000000000000000000000009F9F9F0000009B
:100880000000000000000000000001071F7EF8E0EB
:10089000C000000000000000000000000000000098
:1008A0000000000000000000000000000000000048
:1008B0000000000000000000000000000000000038
:1008C0000000000000000000000000000000000028
:1008D0000000000000000000000000000000000018
:1008E0000000E0F0FCFFEFE3E0E0E0E0E0E0E0E06B
:1008F000E0E0E0E0E0E0E0E0E0E0E3E3E3E0E0E0EF
:10090000E0E0E0E0E0E0E0E0E0E0E0E0E0E0E0E3E4
:10091000EFFFFCF0E000000000000000000000001D
:1009200000000000000000000000000000000000C7
:1009300000000000000000000000000000000000B7
:1009400000000000000000000000000000000000A7
:1009500000400000F09090909000804040400040A7
:10096000F04000004040C00000804040F0000080A7
:100970004040800000000000804040F000008040C7
:1009800040800000000000806010608000F00000E7
:100990004040C00000C04000C04040C04040800017
:1009A000004040C00000F000000000000000000017
:1009B0000000000000000000000000000000000037
:1009C0000000000000000000000000000000000027
:1009D000001F0000070404040400040505020000D1
:1009E00007040006050507000003040407000003D0
:1009F00004040300000000000304040700000305D2
:100A000005050000000004030101010304070006BE
:100A100005050700000700000700000700000700A9
:100A200006050507000005000000000000000000AA
:100A30000000000000000000000000004A0FF66EF9
:100A40000A0EF7220900F550120000000000000015
:100A50000000000000000000000000000000000096
:100A60000000000000000000000000000000000086
:100A70000000000000000000000000000000000076
:100A8000000000808080C0C0C0C0C0C080808000E6
:100A90000000000000000000000000000000000056
:100AA0000000000000000000000000000000000046
:100AB0000000000000000000000000000000000036
:100AC0000000000000000000000000000000000026
:100AD0000000000000000000000000000000000016
:100AE0000000000000000000000000000000000006
:100AF00000000000000000000000C0E0F0F8FCFE74
:100B0000FEFFFFFFFFFFFFFFFFFFFFFFFFFFFFFFF6
:100B10007FFEFEFCF8F0E0C00000000000000000D6
:100B200000000000000000000000000000000000C5
:100B300000000000000000000000000000000000B5
:100B400000000000000000000000000000000000A5
:100B50000000000000000000000000000000000095
:100B60000000000000000000000000000000000085
:100B70000000000000000000F8FFFFFFFFFFFFFF84
:100B8000FFFFFFFFFFFFFFFFFFFFFF7F1F0781E06A
:100B9000F8FEFFFFFFFFFFFFFFF80000000000006E
:100BA0000000000000000000000000000000000045
:100BB0000000000000000000000000000000000035
:100BC0000000000000000000000000000000000025
:100BD0000000000000000000000000000000000015
:100BE0000000000000000000000000000000000005
:100BF00000000000000000000F7FFFFFFFFFFFF775
:100C0000E3C3871F1F3F7F7F1F0781E0F8FEFFFFC1
:100C1000FFFFFFFFFFFFFFFF7F0F0000000000004E
:100C200000000000000000000000000000000000C4
:100C300000000000000000000000000000000000B4
:100C400000000000000000000000000000000000A4
:100C50000000000000000000000000000000000094
:100C60000000000000000000000000000000000084
:100C7000000000000000000000000103070F1F3FFC
:100C80003F7F7FFFFFFEFCF8FCFEFFFFFFFFFF7FC3
:100C90007F3F3F1F0F07030100000000000000001E
:100CA0000000000000000000000000000000000044
:100CB0000000000000000000000000000000000034
:100CC0000000000000000000000000000000000024
:100CD0000000000000000000000000000000000014
:100CE0000000000000000000000000000000000004
:100CF0000000800000000000000000000000000074
:100D0000000000000000010101010101800000005D
:100D10000000000000000000000080000000000053
:100D200000000000000000000000000000000000C3
:100D300000000000000000000000000000000000B3
:100D400000000000000000000000000000000000A3
:100D50000000000000000000000000000000000093
:100D6000000000000000000000000000000000C0C3
:100D70003817101738C000007C82824400007C9233
:100D800092925C0000FE4482827C0002FF8200643A
:100D9000929252FC00007C828244FF00007C82829E
:100DA000827C000000000000000000000000000045
:100DB0000000000000000000000000000000000033
:100DC0000000000000000000000000000000000023
:100DD0000000000000000000000000000000000013
:100DE0000000000000000000000000000000000003
:100DF00000000000000000000000000000000000F3
:100E000000000000000300000000000000000000DF
:100E100000000000000000000000000000000000D2
:100E200000000000000000000000000000000000C2
:100E300000000000000000000000000000000000B2
:100E400000000000000000000000580FF66E0E0EBB
:100E5000F7220900F5501200000000000000000019
:100E60000000000000000000000000000000000082
:100E70000000000000000000000000000000000072
:100E800000000080C0C0C08080C0F8F8F8F8C080C2
:100E900080C0C0C080000000000000000000008092
:100EA00080808000000000000000000000000000C2
:100EB0000000000000000000000000000000000032
:100EC0000000000000000000000000000000000022
:100ED0000000000000000000000000000000000012
:100EE0000000000000000000000000000000000002
:100EF00000000000000000000000000000000000F2
:100F0000E0E0E0F3FFFFFF1F07070303030307070A
:100F10000FFFFFFFF3E1E0E038FCFCFCF8787C3FDA
:100F20003F3F3F7C78F8FCFCFC38100000000000DC
:100F300000000000000000000000000000000000B1
:100F400000000000000000000000000000000000A1
:100F50000000000000000000000000000000000091
:100F60000000000000000000000000000000000081
:100F70000000000000000000000000000000000071
:100F800001010173FFFFFF7E78F8F0F0F0F0F878D0
:100F90007CFFFFFF733F1F1F3FFFFFFFE1808000CB
:100FA0000000008080C0FFFFFF3F1E1E1E000000EB
:100FB0000000000000000000000000000000000031
:100FC0000000000000000000000000000000000021
:100FD0000000000000000000000000000000000011
:100FE0000000000000000000000000000000000001
:100FF00000000000000000000000000000000000F1
:101000000000000000000000000007071FFFFCFCBC
:10101000F87070787E7E7EFEE7EFEFFFF7E70F7FD8
:101020007F7F7F0F07070F0F0F07020000000000F0
:1010300000000000000000000000000000000000B0
:1010400000000000000000000000000000000000A0
:101050000000000000000000000000000000000090
:101060000000000000000000000000000000000080
:101070000000000000000000000000000000000070
:101080000000000000000000000F0F9FFFFFFF8125
:10109000000000000000000081FFFFFFF9F0F000F9
:1010A0000000000000000000000000000000000040
:1010B0000000000000000000000000000000000030
:1010C0000000000000000000000000000000000020
:1010D0000000000000000000000000000000000010
:1010E0000000000000000000000000000000000000
:1010F00000000000000000000000000000000000F0
:1011000000000000000000000000070F0F070707A5
:101110007F7E7E7E1E0E0E1F3F3F3F1800000000A8
:1011200000000000000000000000000000000000BF
:1011300000000000000000000000000000000000AF
:10114000000000000000000000000000000000009F
:10115000000000000000000000F830C000C030F8BF
:10116000000000C0202020C00000E0402020C0007F
:1011700000E0000000E00000000000C0202040F877
:101180000000C0202020C00000000000E01008087F
:101190000810200000C0202020C00000E0402020D7
:1011A000C00020F02808E80000C0202040E0000037
:1011B000E0000000E00000E040200040202020C0CF
:1011C0000000C02020400000E80000C0202824C00B
:1011D0000000E0402020C000000F00030C03000FBF
:1011E000000000070909090500000F0000000F00BA
:1011F00000070808080F0000000000070808040F97
:1012000000000709090905000000000003040808A0
:101210000804020000070808080700000F0000008B
:101220000F00000F00000F0000272828241F0000D7
:10123000070808080F00000F000000060909050F45
:1012400000000708080400000F000007080808074E
:1012500000000F0000000F00F76A680FF66E120E14
:10126000F7220900F55012003936353032370000C8
:10127000F76A800FF66E120EF7220900F550120081
:101280003130353133310000F76A980FF66E120EA7
:10129000F7220900F5501200363836343433000096
:1012A000F76AB00FF66E120EF7220900F550120021
:1012B000313531373132000093908A9093928A927F
:1012C00093948A9493968A969390939293949396F8
:1012D0009388938A938C938E0BEF0BF0000E956E90
:1012E00094988B989C5303E094908B8002D09492B6
:1012F0008B8200D000D0956A9DC08CFF00D000D0BA
:10130000949A8B8A00D000D0949A8B9A94928B9264
:1013100094908B9012007B6B7B51070830E3949480
:101320008B949C6B400E9D6FD9DF010E9C6F400E1D
:101330009D6FD4DF7B51B8097D6F9C6B9D6FCEDFB5
:101340007B51B8097D6F010E9C6F7DC09DF0C6DF9B
:1013500094948B847C6B7C513F080FE37A51FF0D92
:10136000F3CF9DF09C6BBADF7A51FF0DF3CF9DF068
:10137000010E9C6FB3DF7C2BEED77B2BCDD71200F9
:10138000949C8B8C949A8B9A94928B9294908B9041
:1013900094948B949C6BC00E9D6FA0DF010E9C6F8C
:1013A000C00E9D6F9BDF9C6B400E9D6F97DF010E03
:1013B0009C6F400E9D6F92DF9C6BB80E9D6F8EDF11
:1013C000010E9C6FB80E9D6F89DF772D0AD09C6B44
:1013D0003F0E9D6F83DF010E9C6F3F0E9D6F7EDF82
:1013E00009D09C6B3E0E9D6F79DF010E9C6F3E0E07
:1013F0009D6F74DF7A6B8FDF0EEF0BF0400E7C6F0A
:101400007E6B7D6B7A6B7A510708D8A0DDD09494FF
:101410008B949C6B400E9D6F61DF010E9C6F400EA4
:101420009D6F5CDF7A51B8097F6F9C6B9D6F56DFB3
:101430007A51B8097F6F010E9C6F7FC09DF04EDF1F
:1014400094948B847951FC0FD8B0B8D0040FE5EF99
:101450000AF07B6B7B513F0829E37B517D257F6F31
:10146000000E7E21806F036E7F5180C0F7FF10EC6D
:1014700001F0816F9C6B9D6F31DF7B517D257F6F0C
:10148000000E7E21806F7C517F27000E802380C05C
:1014900003F07F5180C0F7FF10EC01F0816F010E67
:1014A0009C6F81C09DF01ADF7B2BD4D787D07B6BDC
:1014B0007B513F0829E37B517D257F6F000E7E2104
:1014C000806F036E7F5180C0F7FF17EC03F0816FD0
:1014D0009C6B9D6F03DF7B517D257F6F000E7E210E
:1014E000806F7C517F27000E802380C003F07F51E6
:1014F00080C0F7FF17EC03F0816F010E9C6F81C075
:101500009DF0ECDE7B2BD4D759D07B6B7B513F0811
:1015100029E37B517D257F6F000E7E21806F036E56
:101520007F5180C0F7FF1EEC05F0816F9C6B9D6FB3
:10153000D5DE7B517D257F6F000E7E21806F7C5133
:101540007F27000E802380C003F07F5180C0F7FF0B
:101550001EEC05F0816F010E9C6F81C09DF0BEDE18
:101560007B2BD4D72BD07B6B7B513F0827E37B5160
:101570007D257F6F000E7E21806F036E7F5180C0BE
:10158000F7FF63DC816F9C6B9D6FA8DE7B517D252F
:101590007F6F000E7E21806F7C517F27000E80239D
:1015A00080C003F07F5180C0F7FF4FDC816F010ED8
:1015B0009C6F81C09DF092DE7B2BD6D7800E7D275D
:1015C000000E7E237A2B1FD71200E824F76AF73625
:1015D000E50FF66E150EF7220A00F550FA6E0800B8
:1015E000F550F96E5214AE140A156615EA6A7A0EB1
:1015F000E96EEF500EE0050E016E006A002EFED778
:10160000012EFBD72E0E006E002EFED700D0EF2E3F
:10161000F2D7120051D6010E776FB2D6C150C00B6F
:101620000F09C16EF18E000E926E040E966E796BEC
:10163000E5DE040E776FFA0E7A6FD8DF772FFBD7CF
:101640007A6B69DEEA6A170EE96E070E016EF76AB9
:10165000000E02DE0A000900F5CFEEFF012EFBD7D7
:10166000EA6A1E0EE96E070E016EF76A000E00DED2
:101670000A000900F5CFEEFF012EFBD7EA6A250E1E
:10168000E96E070E016EF76A000EFEDD0A00090022
:10169000F5CFEEFF012EFBD7EA6A2C0EE96E070E9E
:1016A000016EF76A000EFCDD0A000900F5CFEEFFBF
:1016B000012EFBD7D5EF10F093908A9093928A92E7
:1016C00093948A9493968A967E5107E0010A08E0E3
:1016D000030A09E0010A0AE00CD093908A8009D03D
:1016E00093928A8206D093948A8403D093968A86B2
:1016F00000D012007E51FC0F1BE2040F9CEF0BF098
:101700009388000E81B8010E016E14D0938A000EEA
:1017100081BA010E016E0ED0938C000E81BC010EB9
:10172000016E08D0938E000E81BE010E016E02D0B4
:10173000000E016EBFEF0BF0E824F76AF736530F87
:10174000F66E170EF7220A00F550FA6E0800F550F3
:10175000F96E00170C17181724177C6B7C510308BF
:1017600028E37CC07EF0A8DF210E006E002EFED79D
:101770007D6B7D5103081BE37DC07EF0BBD701521A
:1017800014E0040E7E6F98DF7D51040DF3507F6BE3
:101790007E6F036A7C517E25016E7F5103220150CA
:1017A00002EC00F0016E016E09D07D2BE2D77C2B9C
:1017B000D5D7040E7E6F80DF000E016E12EF0CF0A5
:1017C000D650D7CF03F0F2A40CD0010E0426D8B027
:1017D000052AD8B4062AD8B4072AF294D650D7CF0F
:1017E00003F0006E03C001F004C002F005C003F076
:1017F0000650E8320332023201320032E83203325C
:10180000023201320032E832033202320132003257
:10181000E832033202320132003210EF0CF0D0D73E
:1018200012009BD701C07BF009520FE009507B5D8D
:101830000CE0096AF4DF03C00EF002C00DF001C035
:101840000CF000C00BF0030E0A6E0A5006E0010A0D
:1018500014E0030A30E0010A33E07B530DE0DFDFE0
:1018600003C00EF002C00DF001C00CF000C00BF080
:101870007BC009F0010E0A6E3DD0D1DF03C07FF0BE
:1018800002C07EF001C07DF000C07CF00B507C5F98
:101890000C507D5B0D507E5B0E507F5B07E17E53ED
:1018A00005E17D5303E17C514A0804E27BC008F066
:1018B000020E0A6E1FD0095202E1020E0A6E1AD001
:1018C000AEDF03C07FF002C07EF001C07DF000C03B
:1018D0007CF00B507C5F0C507D5B0D507E5B0E509E
:1018E0007F5B07E17E5305E17D5303E17C514A08AC
:1018F00001E20A6A085202E1000E01D0010E016EF7
:1019000083EF0CF08ED708C07AF0086A7AC001F035
:101910001200FF0E956E94988B889B5303E0949071
:101920008B8002D094928B8200D000D0949A8B8AC4
:1019300000D000D0956883CF9CF0949A8B9A9492B3
:101940008B9294908B909CC001F0120099919551CC
:101950003F0803E2400E955F998194948B94959F84
:10196000958D000E99B1010E9A6F9C6F95C09DF0F8
:10197000B5DC000E99B1010E9A6F9631006E0032FF
:1019800000321F0E00160050BF0BB8099B6F9AC0A3
:101990009CF09D6FA3DC94948B84000E99B1010E92
:1019A0009A6F9B6FB6DF000E99B1010E9A6F9B6F15
:1019B000B0DF01C098F0972D0FD09651070B9A6FAA
:1019C000010E006E9A51016E04E0D8900036012E8F
:1019D000FCD7005098130FD09651070B9A6F010E49
:1019E000006E9A51016E04E0D8900036012EFCD7AB
:1019F0000050FF0A981794948B94000E99B1010E31
:101A00009A6F9C6F95C09DF069DC94948B84000E56
:101A100099B1010E9A6F9C6F98C09DF05FDC120027
:101A20007EC003F07DC0E9FF7EC0EAFFEF52D8B46C
:101A3000B1D07EC003F07DC0E9FF7EC0EAFFEF5069
:101A400052081DE37DC0E9FF7EC0EAFF200EEF5C77
:101A5000050DF350036A8A6FEA6A850EE96E8E6B94
:101A60008AC08DF0050E016EF76A8A5112EC00F003
:101A70000A000900F5CFEEFF012EFBD72BD07EC068
:101A800003F07DC0E9FF7EC0EAFFEF507E081DE352
:101A90007DC0E9FF7EC0EAFF530EEF5C050DF350F9
:101AA000036A8A6FEA6A850EE96E8E6B8AC08DF0D2
:101AB000050E016EF76A8A519AEC00F00A000900DF
:101AC000F5CFEEFF012EFBD705D0856B866B876BBC
:101AD000886B896B7EC003F07DC0E9FF7EC0EAFFA2
:101AE000EF500A0A03E0070A07E008D07F51070D0C
:101AF000F350010F7C2749D07B6B47D07F51050DF8
:101B0000F3507B257F0806E27B6B7F51070DF35076
:101B1000010F7C27816B8151040837E3826B82516E
:101B200006082FE3036A8151850FE96E000E03203A
:101B3000EA6EEFCF00F08251016E04E0D8900032DF
:101B4000012EFCD700A01BD0836B7F51835D17E271
:101B5000846B7F51845D11E284517B258A6F8251B1
:101B60007F03F3507C2583258B6F8AC095F0966F99
:101B700080C097F0EBDE842BECD7832BE6D7822B4B
:101B8000CED7812B7F517B27C6D77D2BD8B47E2B18
:101B90007B2B46D71200010E8E6F8F6F946B855191
:101BA000875D956F955195AF03D0000ED880955500
:101BB000036A8C6F03C08DF08651885D956F9551D7
:101BC00095AF03D0000ED8809555036A8A6F03C085
:101BD0008BF08551875D01E28E698651885D01E257
:101BE0008F698B518D5D38E303E18A518C5D34E35D
:101BF000D8908A378B378C518A5D006E8D518B5906
:101C000000C090F0916F8C51905D926F8D51915901
:101C1000936F8D5303E194518C5D1DE385C095F066
:101C200086C096F089C097F091DE91AF08D08A51B6
:101C300090278B5191238E518525856F0AD0925123
:101C40009027935191238E518525856F8F5186253D
:101C5000866F942BDED733D0D8908C378D378A514E
:101C60008C5D006E8B518D5900C090F0916F8A5140
:101C7000905D926F8B519159936F8B5303E1945107
:101C80008A5D1DE385C095F086C096F089C097F007
:101C90005DDE91AF08D08C5190278D5191238F51EB
:101CA0008625866F0AD092519027935191238E51A9
:101CB0008525856F8F518625866F942BDED7120080
:101CC0007E532CE07C517A5D05E27AC081F07CC0C5
:101CD00082F004D07CC081F07AC082F07D517B5DBF
:101CE00005E27BC083F07DC084F004D07DC083F02A
:101CF0007BC084F08151825D10E383C080F080510D
:101D0000845D09E381C095F080C096F07FC097F0B4
:101D10001DDE802BF4D7812BEDD72CD07AC085F037
:101D20007BC086F07CC087F07BC088F07FC089F0E4
:101D300032DF7AC085F07DC086F07CC087F07DC040
:101D400088F07FC089F027DF7AC085F07BC086F0FD
:101D50007AC087F07DC088F07FC089F01CDF7CC02E
:101D600085F07BC086F07CC087F07DC088F07FC0A6
:101D700089F011DF12007CC0E9FF7DC0EAFFEFCFE0
:101D800080F07FC003F07EC0E9FF7FC0EAFFEF5024
:101D9000805D15E17DC003F07CC0E9FF03C0EAFF70
:101DA000EF5203E1000E016E1FD07DC003F07C51A5
:101DB0007C2BD8B47D2B7E2BD8B47F2BDCD77DC079
:101DC00003F07CC0E9FF7DC0EAFFEFCF80F07FC069
:101DD00003F07EC0E9FF7FC0EAFFEF50805D02E2C2
:101DE000FF0E01D0010E016E12008CDD01C077F0F4
:101DF0001550165C32E0756B786B7851060811E36C
:101E0000036A78516E0F016E000E032201C07AF052
:101E100003C07BF003C0EAFF01C0E9FFEF6A782B43
:101E2000ECD77A6B8BEC09F0140E7B6F0A0E7C6F8B
:101E30007E6B3A0E7D6F020E7F6F010E806FF0DDBC
:101E40000E0E7A6F1E0E7B6F720E7C6F320E7D6FE0
:101E50007E6B010E7F6F34DF166A775350E0755149
:101E60005F081EE3140E75257A6F7B6F200E7C6F62
:101E70007E6B6C0E7D6F020E7F6F010E806FD0DD6A
:101E80007539006E0F0E00160050036A6E0FE96E72
:101E9000000E0320EA6E77C0EFFF100E75272FD0DB
:101EA0007D6B6E0E7C6F7F6B330E7E6F64DF015235
:101EB00003E1010E156E1ED0796B795103081AE308
:101EC0007951070DF350036A170F016E000E0322BC
:101ED00001C07AF003C07BF07D6B6E0E7C6F03C097
:101EE0007FF001C07EF047DF015202E1020E156E65
:101EF000792BE3D71650155C02E1030E156E5BEFEC
:101F000010F000DD01C077F01550165C3FE0766BF5
:101F1000786B7851060811E3036A78516E0F016EF1
:101F2000000E032201C079F003C07AF003C0EAFF7B
:101F300001C0E9FFEF6A782BECD77A6B8BEC09F0E4
:101F4000030E796FFEEC09F0040E796FC80E7A6FFC
:101F5000F6EC0AF0792FFAD77A6B8BEC09F07B6BF1
:101F60007C6B7E6B430E7D6F010E7F6F806F58DD43
:101F70000E0E7A6F1E0E7B6F720E7C6F320E7D6FAF
:101F80007E6B010E7F6F9CDE010E166E775342E072
:101F900076515F081EE3140E7625796F7B6F200E55
:101FA0007C6F7E6B6C0E7D6F020E7F6F010E806FFB
:101FB00037DD7639006E0F0E00160050036A6E0F83
:101FC000E96E000E0320EA6E77C0EFFF100E762751
:101FD00021D0EA6A330EE96EE26A6E0EE16EE752D4
:101FE000E6CFEEFFFCE17A6B8BEC09F00A0E7B6F1B
:101FF0007C6F7E6B570E7D6F020E7F6F010E806FC0
:102000000FDD040E796FC80E7A6FF6EC0AF0792FA7
:10201000FAD7156A5BEF10F01550165C06E0020E59
:10202000796FFEEC09F0020E166E96908D80776B3C
:102030007751090808E3140E7A6FF6EC0AF09290D3
:102040008970772BF5D79290899096908D90156A2C
:10205000040E786FC80E7A6FF6EC0AF0782FFAD774
:102060005BEF10F01550165C06E0010E796FFEEC88
:1020700009F0030E166E96928D82968484A407D082
:10208000320E7A6FF6EC0AF092908970F6D7929041
:10209000899096928D92156A5BEF10F01550FC0FA7
:1020A0000AE2040F5DEF10F0A0D605D02AD703D0C6
:1020B000B3D701D0D7D7D6EF10F0E824F76AF736B8
:1020C000D50FF66E200EF7220A00F550FA6E0800C2
:1020D000F550F96EA820AC20B020B420F86AD09E4C
:1020E000076A066A056A046A870ED56ED76AD66AD9
:1020F000F294086A156A010E166EC150C00B0F09E2
:10210000C16E070EB46E30D008400900064017308B
:1021100001800006C03001800006C030018000064A
:10212000C0302D8000414230314344005061737310
:10213000776F726400436F6E666967206E65772003
:1021400070617373776F72640050617373776F722D
:102150006405C0200B806368616E676564002A00B7
:102160000002007500000000000EF86E210EF76EF0
:10217000080EF66E0900F550006E000A13E0090023
:10218000F550016EE8BE05D00F0BEA6E0900F5CFE1
:10219000E9FF01BC090001AC0900F5CFEEFF004EDC
:1021A000E9D7F9D7F86A0AEF0BF078D7FED7030022
:020000040030CA
:0E0000003FCC3E1E0087A1000FC00FE00F4056
:00000001FF
;PIC18F4550
;CRC=3F1A  CREATED="15-jul.-21 16:05"
